{
  "_format": "hh-sol-artifact-1",
  "contractName": "Crowdfunding",
  "sourceName": "contracts/Transactions.sol",
  "abi": [
    {
      "anonymous": false,
      "inputs": [
        {
          "indexed": false,
          "internalType": "string",
          "name": "Title",
          "type": "string"
        },
        {
          "indexed": false,
          "internalType": "string",
          "name": "Discriptionurl",
          "type": "string"
        },
        {
          "indexed": false,
          "internalType": "string",
          "name": "Imageurl",
          "type": "string"
        },
        {
          "indexed": false,
          "internalType": "string",
          "name": "Category",
          "type": "string"
        },
        {
          "indexed": false,
          "internalType": "uint256",
          "name": "RequiredAmount",
          "type": "uint256"
        },
        {
          "indexed": false,
          "internalType": "uint256",
          "name": "CollectAmount",
          "type": "uint256"
        },
        {
          "indexed": true,
          "internalType": "address",
          "name": "Owner",
          "type": "address"
        },
        {
          "indexed": false,
          "internalType": "uint256",
          "name": "timestamp",
          "type": "uint256"
        }
      ],
      "name": "Created",
      "type": "event"
    },
    {
      "inputs": [],
      "name": "CampaignCount",
      "outputs": [
        {
          "internalType": "uint256",
          "name": "",
          "type": "uint256"
        }
      ],
      "stateMutability": "view",
      "type": "function"
    },
    {
      "inputs": [
        {
          "internalType": "uint256",
          "name": "",
          "type": "uint256"
        }
      ],
      "name": "Campaigns",
      "outputs": [
        {
          "internalType": "uint256",
          "name": "id",
          "type": "uint256"
        },
        {
          "internalType": "string",
          "name": "Title",
          "type": "string"
        },
        {
          "internalType": "string",
          "name": "Discriptionurl",
          "type": "string"
        },
        {
          "internalType": "string",
          "name": "Imageurl",
          "type": "string"
        },
        {
          "internalType": "string",
          "name": "Category",
          "type": "string"
        },
        {
          "internalType": "uint256",
          "name": "RequiredAmount",
          "type": "uint256"
        },
        {
          "internalType": "uint256",
          "name": "CollectAmount",
          "type": "uint256"
        },
        {
          "internalType": "address payable",
          "name": "Owner",
          "type": "address"
        }
      ],
      "stateMutability": "view",
      "type": "function"
    },
    {
      "inputs": [
        {
          "internalType": "string",
          "name": "_imguri",
          "type": "string"
        },
        {
          "internalType": "string",
          "name": "_discriptionuri",
          "type": "string"
        },
        {
          "internalType": "uint256",
          "name": "_amount",
          "type": "uint256"
        },
        {
          "internalType": "string",
          "name": "_title",
          "type": "string"
        },
        {
          "internalType": "string",
          "name": "_category",
          "type": "string"
        }
      ],
      "name": "CreateCampaign",
      "outputs": [],
      "stateMutability": "nonpayable",
      "type": "function"
    },
    {
      "inputs": [
        {
          "internalType": "uint256",
          "name": "_id",
          "type": "uint256"
        },
        {
          "internalType": "uint256",
          "name": "_amount",
          "type": "uint256"
        }
      ],
      "name": "FundCampaign",
      "outputs": [],
      "stateMutability": "payable",
      "type": "function"
    }
  ],
  "bytecode": "0x608060405234801561001057600080fd5b50610e2c806100206000396000f3fe60806040526004361061003f5760003560e01c8063255cc920146100445780634013be101461006f578063c6d212d7146100b3578063d624ad36146100dc575b600080fd5b34801561005057600080fd5b506100596100f8565b6040516100669190610aae565b60405180910390f35b34801561007b57600080fd5b5061009660048036038101906100919190610898565b6100fe565b6040516100aa989796959493929190610ac9565b60405180910390f35b3480156100bf57600080fd5b506100da60048036038101906100d591906107c1565b610386565b005b6100f660048036038101906100f191906108c1565b610542565b005b60005481565b600160205280600052604060002060009150905080600001549080600101805461012790610cc6565b80601f016020809104026020016040519081016040528092919081815260200182805461015390610cc6565b80156101a05780601f10610175576101008083540402835291602001916101a0565b820191906000526020600020905b81548152906001019060200180831161018357829003601f168201915b5050505050908060020180546101b590610cc6565b80601f01602080910402602001604051908101604052809291908181526020018280546101e190610cc6565b801561022e5780601f106102035761010080835404028352916020019161022e565b820191906000526020600020905b81548152906001019060200180831161021157829003601f168201915b50505050509080600301805461024390610cc6565b80601f016020809104026020016040519081016040528092919081815260200182805461026f90610cc6565b80156102bc5780601f10610291576101008083540402835291602001916102bc565b820191906000526020600020905b81548152906001019060200180831161029f57829003601f168201915b5050505050908060040180546102d190610cc6565b80601f01602080910402602001604051908101604052809291908181526020018280546102fd90610cc6565b801561034a5780601f1061031f5761010080835404028352916020019161034a565b820191906000526020600020905b81548152906001019060200180831161032d57829003601f168201915b5050505050908060050154908060060154908060070160009054906101000a900473ffffffffffffffffffffffffffffffffffffffff16905088565b60008081548092919061039890610cf8565b91905055506040518061010001604052806000548152602001838152602001858152602001868152602001828152602001848152602001600081526020013373ffffffffffffffffffffffffffffffffffffffff16815250600160008054815260200190815260200160002060008201518160000155602082015181600101908051906020019061042a9291906106a1565b5060408201518160020190805190602001906104479291906106a1565b5060608201518160030190805190602001906104649291906106a1565b5060808201518160040190805190602001906104819291906106a1565b5060a0820151816005015560c0820151816006015560e08201518160070160006101000a81548173ffffffffffffffffffffffffffffffffffffffff021916908373ffffffffffffffffffffffffffffffffffffffff1602179055509050503373ffffffffffffffffffffffffffffffffffffffff167f50f33bf1ed537db50323c2427cbdd8eaa8dd1cded517130c993239062abe3891838688858860004260405161053397969594939291906109e3565b60405180910390a25050505050565b60016000838152602001908152602001600020600501546001600084815260200190815260200160002060060154106105b0576040517f08c379a00000000000000000000000000000000000000000000000000000000081526004016105a790610a8e565b60405180910390fd5b600081116105f3576040517f08c379a00000000000000000000000000000000000000000000000000000000081526004016105ea90610a6e565b60405180910390fd5b6001600083815260200190815260200160002060070160009054906101000a900473ffffffffffffffffffffffffffffffffffffffff1673ffffffffffffffffffffffffffffffffffffffff166108fc829081150290604051600060405180830381858888f1935050505015801561066f573d6000803e3d6000fd5b50806001600084815260200190815260200160002060060160008282546106969190610be0565b925050819055505050565b8280546106ad90610cc6565b90600052602060002090601f0160209004810192826106cf5760008555610716565b82601f106106e857805160ff1916838001178555610716565b82800160010185558215610716579182015b828111156107155782518255916020019190600101906106fa565b5b5090506107239190610727565b5090565b5b80821115610740576000816000905550600101610728565b5090565b600061075761075284610b94565b610b63565b90508281526020810184848401111561076f57600080fd5b61077a848285610c84565b509392505050565b600082601f83011261079357600080fd5b81356107a3848260208601610744565b91505092915050565b6000813590506107bb81610ddf565b92915050565b600080600080600060a086880312156107d957600080fd5b600086013567ffffffffffffffff8111156107f357600080fd5b6107ff88828901610782565b955050602086013567ffffffffffffffff81111561081c57600080fd5b61082888828901610782565b9450506040610839888289016107ac565b935050606086013567ffffffffffffffff81111561085657600080fd5b61086288828901610782565b925050608086013567ffffffffffffffff81111561087f57600080fd5b61088b88828901610782565b9150509295509295909350565b6000602082840312156108aa57600080fd5b60006108b8848285016107ac565b91505092915050565b600080604083850312156108d457600080fd5b60006108e2858286016107ac565b92505060206108f3858286016107ac565b9150509250929050565b61090681610c36565b82525050565b61091581610c72565b82525050565b600061092682610bc4565b6109308185610bcf565b9350610940818560208601610c93565b61094981610dce565b840191505092915050565b6000610961601683610bcf565b91507f796f757220616d6f756e7420697320746f6f206c6f77000000000000000000006000830152602082019050919050565b60006109a1601c83610bcf565b91507f726571756972656420616d6f756e7420697320636f6c6c6563746564000000006000830152602082019050919050565b6109dd81610c68565b82525050565b600060e08201905081810360008301526109fd818a61091b565b90508181036020830152610a11818961091b565b90508181036040830152610a25818861091b565b90508181036060830152610a39818761091b565b9050610a4860808301866109d4565b610a5560a083018561090c565b610a6260c08301846109d4565b98975050505050505050565b60006020820190508181036000830152610a8781610954565b9050919050565b60006020820190508181036000830152610aa781610994565b9050919050565b6000602082019050610ac360008301846109d4565b92915050565b600061010082019050610adf600083018b6109d4565b8181036020830152610af1818a61091b565b90508181036040830152610b05818961091b565b90508181036060830152610b19818861091b565b90508181036080830152610b2d818761091b565b9050610b3c60a08301866109d4565b610b4960c08301856109d4565b610b5660e08301846108fd565b9998505050505050505050565b6000604051905081810181811067ffffffffffffffff82111715610b8a57610b89610d9f565b5b8060405250919050565b600067ffffffffffffffff821115610baf57610bae610d9f565b5b601f19601f8301169050602081019050919050565b600081519050919050565b600082825260208201905092915050565b6000610beb82610c68565b9150610bf683610c68565b9250827fffffffffffffffffffffffffffffffffffffffffffffffffffffffffffffffff03821115610c2b57610c2a610d41565b5b828201905092915050565b6000610c4182610c48565b9050919050565b600073ffffffffffffffffffffffffffffffffffffffff82169050919050565b6000819050919050565b6000610c7d82610c68565b9050919050565b82818337600083830152505050565b60005b83811015610cb1578082015181840152602081019050610c96565b83811115610cc0576000848401525b50505050565b60006002820490506001821680610cde57607f821691505b60208210811415610cf257610cf1610d70565b5b50919050565b6000610d0382610c68565b91507fffffffffffffffffffffffffffffffffffffffffffffffffffffffffffffffff821415610d3657610d35610d41565b5b600182019050919050565b7f4e487b7100000000000000000000000000000000000000000000000000000000600052601160045260246000fd5b7f4e487b7100000000000000000000000000000000000000000000000000000000600052602260045260246000fd5b7f4e487b7100000000000000000000000000000000000000000000000000000000600052604160045260246000fd5b6000601f19601f8301169050919050565b610de881610c68565b8114610df357600080fd5b5056fea2646970667358221220a3f5ef441826c542c07d068bc76c64f0f844fcbe60c657355e13b63b9180f5aa64736f6c63430008000033",
  "linkReferences": {},
  "deployedLinkReferences": {}
}