{
  "_format": "hh-sol-artifact-1",
  "contractName": "Crowdfunding",
  "sourceName": "contracts/Transactions.sol",
  "abi": [
    {
      "anonymous": false,
      "inputs": [
        {
          "indexed": false,
          "internalType": "string",
          "name": "Title",
          "type": "string"
        },
        {
          "indexed": false,
          "internalType": "string",
          "name": "Discriptionurl",
          "type": "string"
        },
        {
          "indexed": false,
          "internalType": "string",
          "name": "Imageurl",
          "type": "string"
        },
        {
          "indexed": false,
          "internalType": "string",
          "name": "Category",
          "type": "string"
        },
        {
          "indexed": false,
          "internalType": "uint256",
          "name": "RequiredAmount",
          "type": "uint256"
        },
        {
          "indexed": false,
          "internalType": "uint256",
          "name": "CollectAmount",
          "type": "uint256"
        },
        {
          "indexed": true,
          "internalType": "address",
          "name": "Owner",
          "type": "address"
        },
        {
          "indexed": false,
          "internalType": "uint256",
          "name": "timestamp",
          "type": "uint256"
        }
      ],
      "name": "Created",
      "type": "event"
    },
    {
      "inputs": [],
      "name": "CampaignCount",
      "outputs": [
        {
          "internalType": "uint256",
          "name": "",
          "type": "uint256"
        }
      ],
      "stateMutability": "view",
      "type": "function"
    },
    {
      "inputs": [
        {
          "internalType": "uint256",
          "name": "",
          "type": "uint256"
        }
      ],
      "name": "Campaigns",
      "outputs": [
        {
          "internalType": "uint256",
          "name": "id",
          "type": "uint256"
        },
        {
          "internalType": "string",
          "name": "Title",
          "type": "string"
        },
        {
          "internalType": "string",
          "name": "Discriptionurl",
          "type": "string"
        },
        {
          "internalType": "string",
          "name": "Imageurl",
          "type": "string"
        },
        {
          "internalType": "string",
          "name": "Category",
          "type": "string"
        },
        {
          "internalType": "uint256",
          "name": "RequiredAmount",
          "type": "uint256"
        },
        {
          "internalType": "uint256",
          "name": "CollectAmount",
          "type": "uint256"
        },
        {
          "internalType": "address payable",
          "name": "Owner",
          "type": "address"
        }
      ],
      "stateMutability": "view",
      "type": "function"
    },
    {
      "inputs": [
        {
          "internalType": "string",
          "name": "_imguri",
          "type": "string"
        },
        {
          "internalType": "string",
          "name": "_discriptionuri",
          "type": "string"
        },
        {
          "internalType": "uint256",
          "name": "_amount",
          "type": "uint256"
        },
        {
          "internalType": "string",
          "name": "_title",
          "type": "string"
        },
        {
          "internalType": "string",
          "name": "_category",
          "type": "string"
        }
      ],
      "name": "CreateCampaign",
      "outputs": [],
      "stateMutability": "nonpayable",
      "type": "function"
    },
    {
      "inputs": [
        {
          "internalType": "uint256",
          "name": "id",
          "type": "uint256"
        }
      ],
      "name": "FundCampaign",
      "outputs": [],
      "stateMutability": "payable",
      "type": "function"
    }
  ],
  "bytecode": "0x608060405234801561001057600080fd5b50610f36806100206000396000f3fe60806040526004361061003f5760003560e01c8063179c5b4214610044578063255cc920146100605780634013be101461008b578063c6d212d7146100cf575b600080fd5b61005e60048036038101906100599190610944565b6100f8565b005b34801561006c57600080fd5b50610075610303565b6040516100829190610bad565b60405180910390f35b34801561009757600080fd5b506100b260048036038101906100ad9190610944565b610309565b6040516100c6989796959493929190610bc8565b60405180910390f35b3480156100db57600080fd5b506100f660048036038101906100f1919061086d565b610591565b005b6001600082815260200190815260200160002060050154600160008381526020019081526020016000206006015410610166576040517f08c379a000000000000000000000000000000000000000000000000000000000815260040161015d90610b8d565b60405180910390fd5b600034116101a9576040517f08c379a00000000000000000000000000000000000000000000000000000000081526004016101a090610b6d565b60405180910390fd5b60016000828152602001908152602001600020600501543460016000848152602001908152602001600020600601546101e29190610cea565b11156101ed57600080fd5b6000806001600084815260200190815260200160002060070160009054906101000a900473ffffffffffffffffffffffffffffffffffffffff1673ffffffffffffffffffffffffffffffffffffffff163460405161024a90610aad565b60006040518083038185875af1925050503d8060008114610287576040519150601f19603f3d011682016040523d82523d6000602084013e61028c565b606091505b5091509150816102d1576040517f08c379a00000000000000000000000000000000000000000000000000000000081526004016102c890610b4d565b60405180910390fd5b346001600085815260200190815260200160002060060160008282546102f79190610cea565b92505081905550505050565b60005481565b600160205280600052604060002060009150905080600001549080600101805461033290610dd0565b80601f016020809104026020016040519081016040528092919081815260200182805461035e90610dd0565b80156103ab5780601f10610380576101008083540402835291602001916103ab565b820191906000526020600020905b81548152906001019060200180831161038e57829003601f168201915b5050505050908060020180546103c090610dd0565b80601f01602080910402602001604051908101604052809291908181526020018280546103ec90610dd0565b80156104395780601f1061040e57610100808354040283529160200191610439565b820191906000526020600020905b81548152906001019060200180831161041c57829003601f168201915b50505050509080600301805461044e90610dd0565b80601f016020809104026020016040519081016040528092919081815260200182805461047a90610dd0565b80156104c75780601f1061049c576101008083540402835291602001916104c7565b820191906000526020600020905b8154815290600101906020018083116104aa57829003601f168201915b5050505050908060040180546104dc90610dd0565b80601f016020809104026020016040519081016040528092919081815260200182805461050890610dd0565b80156105555780601f1061052a57610100808354040283529160200191610555565b820191906000526020600020905b81548152906001019060200180831161053857829003601f168201915b5050505050908060050154908060060154908060070160009054906101000a900473ffffffffffffffffffffffffffffffffffffffff16905088565b6000808154809291906105a390610e02565b91905055506040518061010001604052806000548152602001838152602001858152602001868152602001828152602001848152602001600081526020013373ffffffffffffffffffffffffffffffffffffffff16815250600160008054815260200190815260200160002060008201518160000155602082015181600101908051906020019061063592919061074d565b50604082015181600201908051906020019061065292919061074d565b50606082015181600301908051906020019061066f92919061074d565b50608082015181600401908051906020019061068c92919061074d565b5060a0820151816005015560c0820151816006015560e08201518160070160006101000a81548173ffffffffffffffffffffffffffffffffffffffff021916908373ffffffffffffffffffffffffffffffffffffffff1602179055509050503373ffffffffffffffffffffffffffffffffffffffff167f50f33bf1ed537db50323c2427cbdd8eaa8dd1cded517130c993239062abe3891838688858860004260405161073e9796959493929190610ac2565b60405180910390a25050505050565b82805461075990610dd0565b90600052602060002090601f01602090048101928261077b57600085556107c2565b82601f1061079457805160ff19168380011785556107c2565b828001600101855582156107c2579182015b828111156107c15782518255916020019190600101906107a6565b5b5090506107cf91906107d3565b5090565b5b808211156107ec5760008160009055506001016107d4565b5090565b60006108036107fe84610c93565b610c62565b90508281526020810184848401111561081b57600080fd5b610826848285610d8e565b509392505050565b600082601f83011261083f57600080fd5b813561084f8482602086016107f0565b91505092915050565b60008135905061086781610ee9565b92915050565b600080600080600060a0868803121561088557600080fd5b600086013567ffffffffffffffff81111561089f57600080fd5b6108ab8882890161082e565b955050602086013567ffffffffffffffff8111156108c857600080fd5b6108d48882890161082e565b94505060406108e588828901610858565b935050606086013567ffffffffffffffff81111561090257600080fd5b61090e8882890161082e565b925050608086013567ffffffffffffffff81111561092b57600080fd5b6109378882890161082e565b9150509295509295909350565b60006020828403121561095657600080fd5b600061096484828501610858565b91505092915050565b61097681610d40565b82525050565b61098581610d7c565b82525050565b600061099682610cc3565b6109a08185610cd9565b93506109b0818560208601610d9d565b6109b981610ed8565b840191505092915050565b60006109d1601383610cd9565b91507f66696c656420746f2073656e64206574686572000000000000000000000000006000830152602082019050919050565b6000610a11601683610cd9565b91507f796f757220616d6f756e7420697320746f6f206c6f77000000000000000000006000830152602082019050919050565b6000610a51601c83610cd9565b91507f726571756972656420616d6f756e7420697320636f6c6c6563746564000000006000830152602082019050919050565b6000610a91600083610cce565b9150600082019050919050565b610aa781610d72565b82525050565b6000610ab882610a84565b9150819050919050565b600060e0820190508181036000830152610adc818a61098b565b90508181036020830152610af0818961098b565b90508181036040830152610b04818861098b565b90508181036060830152610b18818761098b565b9050610b276080830186610a9e565b610b3460a083018561097c565b610b4160c0830184610a9e565b98975050505050505050565b60006020820190508181036000830152610b66816109c4565b9050919050565b60006020820190508181036000830152610b8681610a04565b9050919050565b60006020820190508181036000830152610ba681610a44565b9050919050565b6000602082019050610bc26000830184610a9e565b92915050565b600061010082019050610bde600083018b610a9e565b8181036020830152610bf0818a61098b565b90508181036040830152610c04818961098b565b90508181036060830152610c18818861098b565b90508181036080830152610c2c818761098b565b9050610c3b60a0830186610a9e565b610c4860c0830185610a9e565b610c5560e083018461096d565b9998505050505050505050565b6000604051905081810181811067ffffffffffffffff82111715610c8957610c88610ea9565b5b8060405250919050565b600067ffffffffffffffff821115610cae57610cad610ea9565b5b601f19601f8301169050602081019050919050565b600081519050919050565b600081905092915050565b600082825260208201905092915050565b6000610cf582610d72565b9150610d0083610d72565b9250827fffffffffffffffffffffffffffffffffffffffffffffffffffffffffffffffff03821115610d3557610d34610e4b565b5b828201905092915050565b6000610d4b82610d52565b9050919050565b600073ffffffffffffffffffffffffffffffffffffffff82169050919050565b6000819050919050565b6000610d8782610d72565b9050919050565b82818337600083830152505050565b60005b83811015610dbb578082015181840152602081019050610da0565b83811115610dca576000848401525b50505050565b60006002820490506001821680610de857607f821691505b60208210811415610dfc57610dfb610e7a565b5b50919050565b6000610e0d82610d72565b91507fffffffffffffffffffffffffffffffffffffffffffffffffffffffffffffffff821415610e4057610e3f610e4b565b5b600182019050919050565b7f4e487b7100000000000000000000000000000000000000000000000000000000600052601160045260246000fd5b7f4e487b7100000000000000000000000000000000000000000000000000000000600052602260045260246000fd5b7f4e487b7100000000000000000000000000000000000000000000000000000000600052604160045260246000fd5b6000601f19601f8301169050919050565b610ef281610d72565b8114610efd57600080fd5b5056fea26469706673582212201b8231baf087fef4dc05f9fca6ab9890d01d6e4224d5369a4790eb9a02e16d4464736f6c63430008000033",
  "linkReferences": {},
  "deployedLinkReferences": {}
}